{
    "abi": [
        {
            "type": "constructor",
            "inputs": [],
            "stateMutability": "nonpayable"
        },
        {
            "type": "function",
            "name": "allowance",
            "inputs": [
                {
                    "name": "_owner",
                    "type": "address",
                    "internalType": "address"
                },
                {
                    "name": "_spender",
                    "type": "address",
                    "internalType": "address"
                }
            ],
            "outputs": [
                {
                    "name": "remaining",
                    "type": "uint256",
                    "internalType": "uint256"
                }
            ],
            "stateMutability": "view"
        },
        {
            "type": "function",
            "name": "approve",
            "inputs": [
                {
                    "name": "_spender",
                    "type": "address",
                    "internalType": "address"
                },
                {
                    "name": "_value",
                    "type": "uint256",
                    "internalType": "uint256"
                }
            ],
            "outputs": [
                {
                    "name": "",
                    "type": "bool",
                    "internalType": "bool"
                }
            ],
            "stateMutability": "nonpayable"
        },
        {
            "type": "function",
            "name": "approve2",
            "inputs": [
                {
                    "name": "_from",
                    "type": "address",
                    "internalType": "address"
                },
                {
                    "name": "_spender",
                    "type": "address",
                    "internalType": "address"
                },
                {
                    "name": "_value",
                    "type": "uint256",
                    "internalType": "uint256"
                }
            ],
            "outputs": [
                {
                    "name": "",
                    "type": "bool",
                    "internalType": "bool"
                }
            ],
            "stateMutability": "nonpayable"
        },
        {
            "type": "function",
            "name": "balanceOf",
            "inputs": [
                {
                    "name": "_owner",
                    "type": "address",
                    "internalType": "address"
                }
            ],
            "outputs": [
                {
                    "name": "balance",
                    "type": "uint256",
                    "internalType": "uint256"
                }
            ],
            "stateMutability": "view"
        },
        {
            "type": "function",
            "name": "decimals",
            "inputs": [],
            "outputs": [
                {
                    "name": "",
                    "type": "uint8",
                    "internalType": "uint8"
                }
            ],
            "stateMutability": "view"
        },
        {
            "type": "function",
            "name": "name",
            "inputs": [],
            "outputs": [
                {
                    "name": "",
                    "type": "string",
                    "internalType": "string"
                }
            ],
            "stateMutability": "view"
        },
        {
            "type": "function",
            "name": "symbol",
            "inputs": [],
            "outputs": [
                {
                    "name": "",
                    "type": "string",
                    "internalType": "string"
                }
            ],
            "stateMutability": "view"
        },
        {
            "type": "function",
            "name": "totalSupply",
            "inputs": [],
            "outputs": [
                {
                    "name": "",
                    "type": "uint256",
                    "internalType": "uint256"
                }
            ],
            "stateMutability": "view"
        },
        {
            "type": "function",
            "name": "transfer",
            "inputs": [
                {
                    "name": "_to",
                    "type": "address",
                    "internalType": "address"
                },
                {
                    "name": "_value",
                    "type": "uint256",
                    "internalType": "uint256"
                }
            ],
            "outputs": [
                {
                    "name": "success",
                    "type": "bool",
                    "internalType": "bool"
                }
            ],
            "stateMutability": "nonpayable"
        },
        {
            "type": "function",
            "name": "transferFrom",
            "inputs": [
                {
                    "name": "_from",
                    "type": "address",
                    "internalType": "address"
                },
                {
                    "name": "_to",
                    "type": "address",
                    "internalType": "address"
                },
                {
                    "name": "_value",
                    "type": "uint256",
                    "internalType": "uint256"
                }
            ],
            "outputs": [
                {
                    "name": "success",
                    "type": "bool",
                    "internalType": "bool"
                }
            ],
            "stateMutability": "nonpayable"
        },
        {
            "type": "function",
            "name": "transferWithCallback",
            "inputs": [
                {
                    "name": "to",
                    "type": "address",
                    "internalType": "address"
                },
                {
                    "name": "amount",
                    "type": "uint256",
                    "internalType": "uint256"
                }
            ],
            "outputs": [
                {
                    "name": "",
                    "type": "bool",
                    "internalType": "bool"
                }
            ],
            "stateMutability": "nonpayable"
        },
        {
            "type": "event",
            "name": "Approval",
            "inputs": [
                {
                    "name": "owner",
                    "type": "address",
                    "indexed": true,
                    "internalType": "address"
                },
                {
                    "name": "spender",
                    "type": "address",
                    "indexed": true,
                    "internalType": "address"
                },
                {
                    "name": "value",
                    "type": "uint256",
                    "indexed": false,
                    "internalType": "uint256"
                }
            ],
            "anonymous": false
        },
        {
            "type": "event",
            "name": "Transfer",
            "inputs": [
                {
                    "name": "from",
                    "type": "address",
                    "indexed": true,
                    "internalType": "address"
                },
                {
                    "name": "to",
                    "type": "address",
                    "indexed": true,
                    "internalType": "address"
                },
                {
                    "name": "value",
                    "type": "uint256",
                    "indexed": false,
                    "internalType": "uint256"
                }
            ],
            "anonymous": false
        }
    ],
    "bytecode": {
        "object": "0x60806040523480156200001157600080fd5b506040518060400160405280600481526020017f4261736500000000000000000000000000000000000000000000000000000000815250600090805190602001906200005f92919062000128565b506040518060400160405280600481526020017f426173650000000000000000000000000000000000000000000000000000000081525060019080519060200190620000ad92919062000128565b506012600260006101000a81548160ff021916908360ff1602179055506a52b7d2dcc80cd2e4000000600381905550600354600460003373ffffffffffffffffffffffffffffffffffffffff1673ffffffffffffffffffffffffffffffffffffffff168152602001908152602001600020819055506200023d565b8280546200013690620001d8565b90600052602060002090601f0160209004810192826200015a5760008555620001a6565b82601f106200017557805160ff1916838001178555620001a6565b82800160010185558215620001a6579182015b82811115620001a557825182559160200191906001019062000188565b5b509050620001b59190620001b9565b5090565b5b80821115620001d4576000816000905550600101620001ba565b5090565b60006002820490506001821680620001f157607f821691505b602082108114156200020857620002076200020e565b5b50919050565b7f4e487b7100000000000000000000000000000000000000000000000000000000600052602260045260246000fd5b6117c6806200024d6000396000f3fe608060405234801561001057600080fd5b50600436106100a95760003560e01c8063313ce56711610071578063313ce5671461017a57806370a082311461019857806395d89b41146101c8578063a9059cbb146101e6578063cf2cb61a14610216578063dd62ed3e14610246576100a9565b806306fdde03146100ae578063095ea7b3146100cc57806318160ddd146100fc5780631a825b751461011a57806323b872dd1461014a575b600080fd5b6100b6610276565b6040516100c391906111b0565b60405180910390f35b6100e660048036038101906100e19190610f38565b610304565b6040516100f39190611195565b60405180910390f35b610104610477565b60405161011191906112f2565b60405180910390f35b610134600480360381019061012f9190610f38565b61047d565b6040516101419190611195565b60405180910390f35b610164600480360381019061015f9190610ee9565b6105c5565b6040516101719190611195565b60405180910390f35b610182610953565b60405161018f919061130d565b60405180910390f35b6101b260048036038101906101ad9190610e84565b610966565b6040516101bf91906112f2565b60405180910390f35b6101d06109af565b6040516101dd91906111b0565b60405180910390f35b61020060048036038101906101fb9190610f38565b610a3d565b60405161020d9190611195565b60405180910390f35b610230600480360381019061022b9190610ee9565b610cbe565b60405161023d9190611195565b60405180910390f35b610260600480360381019061025b9190610ead565b610dd3565b60405161026d91906112f2565b60405180910390f35b600080546102839061146c565b80601f01602080910402602001604051908101604052809291908181526020018280546102af9061146c565b80156102fc5780601f106102d1576101008083540402835291602001916102fc565b820191906000526020600020905b8154815290600101906020018083116102df57829003601f168201915b505050505081565b60008073ffffffffffffffffffffffffffffffffffffffff168373ffffffffffffffffffffffffffffffffffffffff161415610375576040517f08c379a000000000000000000000000000000000000000000000000000000000815260040161036c90611212565b60405180910390fd5b600082116103b8576040517f08c379a00000000000000000000000000000000000000000000000000000000081526004016103af906111d2565b60405180910390fd5b60006103c5338585610cbe565b905080610407576040517f08c379a00000000000000000000000000000000000000000000000000000000081526004016103fe90611292565b60405180910390fd5b8373ffffffffffffffffffffffffffffffffffffffff163373ffffffffffffffffffffffffffffffffffffffff167f8c5be1e5ebec7d5bd14f71427d1e84f3dd0314c0f7b2291e5b200ac8c7c3b9258560405161046491906112f2565b60405180910390a3600191505092915050565b60035481565b6000808373ffffffffffffffffffffffffffffffffffffffff167f24a756d1a2c8f2c24ad07b6b6c6a46090bce16d2523224ca3aae963753b3622c33856040516024016104cb92919061116c565b604051602081830303815290604052907bffffffffffffffffffffffffffffffffffffffffffffffffffffffff19166020820180517bffffffffffffffffffffffffffffffffffffffffffffffffffffffff83818316178352505050506040516105359190611155565b6000604051808303816000865af19150503d8060008114610572576040519150601f19603f3d011682016040523d82523d6000602084013e610577565b606091505b50509050806105bb576040517f08c379a00000000000000000000000000000000000000000000000000000000081526004016105b2906111f2565b60405180910390fd5b8091505092915050565b60008073ffffffffffffffffffffffffffffffffffffffff168473ffffffffffffffffffffffffffffffffffffffff161415610636576040517f08c379a000000000000000000000000000000000000000000000000000000000815260040161062d906112b2565b60405180910390fd5b600073ffffffffffffffffffffffffffffffffffffffff168373ffffffffffffffffffffffffffffffffffffffff1614156106a6576040517f08c379a000000000000000000000000000000000000000000000000000000000815260040161069d906112d2565b60405180910390fd5b600082116106e9576040517f08c379a00000000000000000000000000000000000000000000000000000000081526004016106e0906111d2565b60405180910390fd5b60006106f58533610dd3565b90508281101561073a576040517f08c379a000000000000000000000000000000000000000000000000000000000815260040161073190611252565b60405180910390fd5b828161074691906113b0565b600560008773ffffffffffffffffffffffffffffffffffffffff1673ffffffffffffffffffffffffffffffffffffffff16815260200190815260200160002060003373ffffffffffffffffffffffffffffffffffffffff1673ffffffffffffffffffffffffffffffffffffffff1681526020019081526020016000208190555082600460008773ffffffffffffffffffffffffffffffffffffffff1673ffffffffffffffffffffffffffffffffffffffff1681526020019081526020016000205461081191906113b0565b600460008773ffffffffffffffffffffffffffffffffffffffff1673ffffffffffffffffffffffffffffffffffffffff1681526020019081526020016000208190555082600460008673ffffffffffffffffffffffffffffffffffffffff1673ffffffffffffffffffffffffffffffffffffffff1681526020019081526020016000205461089f919061135a565b600460008673ffffffffffffffffffffffffffffffffffffffff1673ffffffffffffffffffffffffffffffffffffffff168152602001908152602001600020819055508373ffffffffffffffffffffffffffffffffffffffff168573ffffffffffffffffffffffffffffffffffffffff167fddf252ad1be2c89b69c2b068fc378daa952ba7f163c4a11628f55a4df523b3ef8560405161093f91906112f2565b60405180910390a360019150509392505050565b600260009054906101000a900460ff1681565b6000600460008373ffffffffffffffffffffffffffffffffffffffff1673ffffffffffffffffffffffffffffffffffffffff168152602001908152602001600020549050919050565b600180546109bc9061146c565b80601f01602080910402602001604051908101604052809291908181526020018280546109e89061146c565b8015610a355780601f10610a0a57610100808354040283529160200191610a35565b820191906000526020600020905b815481529060010190602001808311610a1857829003601f168201915b505050505081565b600081600460003373ffffffffffffffffffffffffffffffffffffffff1673ffffffffffffffffffffffffffffffffffffffff168152602001908152602001600020541015610ac1576040517f08c379a0000000000000000000000000000000000000000000000000000000008152600401610ab890611232565b60405180910390fd5b60008373ffffffffffffffffffffffffffffffffffffffff163b14610b3257610aea838361047d565b610b29576040517f08c379a0000000000000000000000000000000000000000000000000000000008152600401610b2090611272565b60405180910390fd5b60019050610cb8565b81600460003373ffffffffffffffffffffffffffffffffffffffff1673ffffffffffffffffffffffffffffffffffffffff16815260200190815260200160002054610b7d91906113b0565b600460003373ffffffffffffffffffffffffffffffffffffffff1673ffffffffffffffffffffffffffffffffffffffff1681526020019081526020016000208190555081600460008573ffffffffffffffffffffffffffffffffffffffff1673ffffffffffffffffffffffffffffffffffffffff16815260200190815260200160002054610c0b919061135a565b600460008573ffffffffffffffffffffffffffffffffffffffff1673ffffffffffffffffffffffffffffffffffffffff168152602001908152602001600020819055508273ffffffffffffffffffffffffffffffffffffffff163373ffffffffffffffffffffffffffffffffffffffff167fddf252ad1be2c89b69c2b068fc378daa952ba7f163c4a11628f55a4df523b3ef84604051610cab91906112f2565b60405180910390a3600190505b92915050565b600081600560008673ffffffffffffffffffffffffffffffffffffffff1673ffffffffffffffffffffffffffffffffffffffff16815260200190815260200160002060008573ffffffffffffffffffffffffffffffffffffffff1673ffffffffffffffffffffffffffffffffffffffff16815260200190815260200160002054610d48919061135a565b600560008673ffffffffffffffffffffffffffffffffffffffff1673ffffffffffffffffffffffffffffffffffffffff16815260200190815260200160002060008573ffffffffffffffffffffffffffffffffffffffff1673ffffffffffffffffffffffffffffffffffffffff16815260200190815260200160002081905550600190509392505050565b6000600560008473ffffffffffffffffffffffffffffffffffffffff1673ffffffffffffffffffffffffffffffffffffffff16815260200190815260200160002060008373ffffffffffffffffffffffffffffffffffffffff1673ffffffffffffffffffffffffffffffffffffffff16815260200190815260200160002054905092915050565b600081359050610e6981611762565b92915050565b600081359050610e7e81611779565b92915050565b600060208284031215610e9657600080fd5b6000610ea484828501610e5a565b91505092915050565b60008060408385031215610ec057600080fd5b6000610ece85828601610e5a565b9250506020610edf85828601610e5a565b9150509250929050565b600080600060608486031215610efe57600080fd5b6000610f0c86828701610e5a565b9350506020610f1d86828701610e5a565b9250506040610f2e86828701610e6f565b9150509250925092565b60008060408385031215610f4b57600080fd5b6000610f5985828601610e5a565b9250506020610f6a85828601610e6f565b9150509250929050565b610f7d816113e4565b82525050565b610f8c816113f6565b82525050565b6000610f9d82611328565b610fa7818561133e565b9350610fb7818560208601611439565b80840191505092915050565b6000610fce82611333565b610fd88185611349565b9350610fe8818560208601611439565b610ff1816114fc565b840191505092915050565b6000611009602383611349565b91506110148261150d565b604082019050919050565b600061102c601d83611349565b91506110378261155c565b602082019050919050565b600061104f602283611349565b915061105a82611585565b604082019050919050565b6000611072602683611349565b915061107d826115d4565b604082019050919050565b6000611095602983611349565b91506110a082611623565b604082019050919050565b60006110b8601683611349565b91506110c382611672565b602082019050919050565b60006110db601583611349565b91506110e68261169b565b602082019050919050565b60006110fe602383611349565b9150611109826116c4565b604082019050919050565b6000611121602383611349565b915061112c82611713565b604082019050919050565b61114081611422565b82525050565b61114f8161142c565b82525050565b60006111618284610f92565b915081905092915050565b60006040820190506111816000830185610f74565b61118e6020830184611137565b9392505050565b60006020820190506111aa6000830184610f83565b92915050565b600060208201905081810360008301526111ca8184610fc3565b905092915050565b600060208201905081810360008301526111eb81610ffc565b9050919050565b6000602082019050818103600083015261120b8161101f565b9050919050565b6000602082019050818103600083015261122b81611042565b9050919050565b6000602082019050818103600083015261124b81611065565b9050919050565b6000602082019050818103600083015261126b81611088565b9050919050565b6000602082019050818103600083015261128b816110ab565b9050919050565b600060208201905081810360008301526112ab816110ce565b9050919050565b600060208201905081810360008301526112cb816110f1565b9050919050565b600060208201905081810360008301526112eb81611114565b9050919050565b60006020820190506113076000830184611137565b92915050565b60006020820190506113226000830184611146565b92915050565b600081519050919050565b600081519050919050565b600081905092915050565b600082825260208201905092915050565b600061136582611422565b915061137083611422565b9250827fffffffffffffffffffffffffffffffffffffffffffffffffffffffffffffffff038211156113a5576113a461149e565b5b828201905092915050565b60006113bb82611422565b91506113c683611422565b9250828210156113d9576113d861149e565b5b828203905092915050565b60006113ef82611402565b9050919050565b60008115159050919050565b600073ffffffffffffffffffffffffffffffffffffffff82169050919050565b6000819050919050565b600060ff82169050919050565b60005b8381101561145757808201518184015260208101905061143c565b83811115611466576000848401525b50505050565b6000600282049050600182168061148457607f821691505b60208210811415611498576114976114cd565b5b50919050565b7f4e487b7100000000000000000000000000000000000000000000000000000000600052601160045260246000fd5b7f4e487b7100000000000000000000000000000000000000000000000000000000600052602260045260246000fd5b6000601f19601f8301169050919050565b7f45524332303a20617070726f76652076616c7565206c657373207468616e207a60008201527f65726f0000000000000000000000000000000000000000000000000000000000602082015250565b7f45524332303a207472616e7366657220746f6b656e73206661696c6564000000600082015250565b7f45524332303a20617070726f766520746f20746865207a65726f20616464726560008201527f7373000000000000000000000000000000000000000000000000000000000000602082015250565b7f45524332303a207472616e7366657220616d6f756e742065786365656473206260008201527f616c616e63650000000000000000000000000000000000000000000000000000602082015250565b7f45524332303a20617070726f76652076616c756520677265617465722074686160008201527f6e2062616c616e63650000000000000000000000000000000000000000000000602082015250565b7f7472616e7366657220746f6b656e73206661696c656400000000000000000000600082015250565b7f45524332303a20617070726f7665206661696c65640000000000000000000000600082015250565b7f617070726f7665206164647265737320746f20746865207a65726f206164647260008201527f6573730000000000000000000000000000000000000000000000000000000000602082015250565b7f72656365697665206164647265737320746f20746865207a65726f206164647260008201527f6573730000000000000000000000000000000000000000000000000000000000602082015250565b61176b816113e4565b811461177657600080fd5b50565b61178281611422565b811461178d57600080fd5b5056fea26469706673582212209e7b42bb575e5b61e48e197d68ddccf14513b9905e828e7c40911652e6c85bb064736f6c63430008040033",
        "linkReferences": {}
    },
    "methodIdentifiers": {
        "allowance(address,address)": "dd62ed3e",
        "approve(address,uint256)": "095ea7b3",
        "approve2(address,address,uint256)": "cf2cb61a",
        "balanceOf(address)": "70a08231",
        "decimals()": "313ce567",
        "name()": "06fdde03",
        "symbol()": "95d89b41",
        "totalSupply()": "18160ddd",
        "transfer(address,uint256)": "a9059cbb",
        "transferFrom(address,address,uint256)": "23b872dd",
        "transferWithCallback(address,uint256)": "1a825b75"
    },
    "id": 21
}