{
    "abi": [
        {
            "type": "constructor",
            "inputs": [
                {
                    "name": "tokenAddress",
                    "type": "address",
                    "internalType": "address"
                }
            ],
            "stateMutability": "nonpayable"
        },
        {
            "type": "receive",
            "stateMutability": "payable"
        },
        {
            "type": "function",
            "name": "LESS_MONEY",
            "inputs": [],
            "outputs": [
                {
                    "name": "",
                    "type": "uint256",
                    "internalType": "uint256"
                }
            ],
            "stateMutability": "view"
        },
        {
            "type": "function",
            "name": "deposit",
            "inputs": [
                {
                    "name": "amount",
                    "type": "uint256",
                    "internalType": "uint256"
                }
            ],
            "outputs": [],
            "stateMutability": "payable"
        },
        {
            "type": "function",
            "name": "getdepositBalance",
            "inputs": [
                {
                    "name": "addr",
                    "type": "address",
                    "internalType": "address"
                }
            ],
            "outputs": [
                {
                    "name": "",
                    "type": "uint256",
                    "internalType": "uint256"
                }
            ],
            "stateMutability": "view"
        },
        {
            "type": "function",
            "name": "name",
            "inputs": [],
            "outputs": [
                {
                    "name": "",
                    "type": "string",
                    "internalType": "string"
                }
            ],
            "stateMutability": "view"
        },
        {
            "type": "function",
            "name": "symbol",
            "inputs": [],
            "outputs": [
                {
                    "name": "",
                    "type": "string",
                    "internalType": "string"
                }
            ],
            "stateMutability": "view"
        },
        {
            "type": "function",
            "name": "token",
            "inputs": [],
            "outputs": [
                {
                    "name": "",
                    "type": "address",
                    "internalType": "contract BaseERC20"
                }
            ],
            "stateMutability": "view"
        },
        {
            "type": "function",
            "name": "tokensReceived",
            "inputs": [
                {
                    "name": "from",
                    "type": "address",
                    "internalType": "address"
                },
                {
                    "name": "amount",
                    "type": "uint256",
                    "internalType": "uint256"
                }
            ],
            "outputs": [],
            "stateMutability": "nonpayable"
        },
        {
            "type": "function",
            "name": "withdraw",
            "inputs": [
                {
                    "name": "to",
                    "type": "address",
                    "internalType": "address"
                },
                {
                    "name": "amount",
                    "type": "uint256",
                    "internalType": "uint256"
                }
            ],
            "outputs": [],
            "stateMutability": "nonpayable"
        },
        {
            "type": "event",
            "name": "WithdrawMoney",
            "inputs": [
                {
                    "name": "",
                    "type": "address",
                    "indexed": false,
                    "internalType": "address"
                },
                {
                    "name": "",
                    "type": "uint256",
                    "indexed": false,
                    "internalType": "uint256"
                }
            ],
            "anonymous": false
        },
        {
            "type": "event",
            "name": "depositMoney",
            "inputs": [
                {
                    "name": "",
                    "type": "address",
                    "indexed": false,
                    "internalType": "address"
                },
                {
                    "name": "",
                    "type": "uint256",
                    "indexed": false,
                    "internalType": "uint256"
                }
            ],
            "anonymous": false
        },
        {
            "type": "event",
            "name": "tranferSuccess",
            "inputs": [
                {
                    "name": "",
                    "type": "string",
                    "indexed": false,
                    "internalType": "string"
                }
            ],
            "anonymous": false
        }
    ],
    "bytecode": {
        "object": "0x6080604052662386f26fc1000060035534801561001b57600080fd5b506040516200123638038062001236833981810160405281019061003f919061009b565b80600260006101000a81548173ffffffffffffffffffffffffffffffffffffffff021916908373ffffffffffffffffffffffffffffffffffffffff1602179055505061010d565b600081519050610095816100f6565b92915050565b6000602082840312156100ad57600080fd5b60006100bb84828501610086565b91505092915050565b60006100cf826100d6565b9050919050565b600073ffffffffffffffffffffffffffffffffffffffff82169050919050565b6100ff816100c4565b811461010a57600080fd5b50565b611119806200011d6000396000f3fe60806040526004361061007f5760003560e01c806395d89b411161004e57806395d89b4114610147578063b6b55f2514610172578063f3fef3a31461018e578063fc0c546a146101b757610086565b806306fdde031461008b57806324a756d1146100b65780637e033afd146100df5780638eeeea6f1461011c57610086565b3661008657005b600080fd5b34801561009757600080fd5b506100a06101e2565b6040516100ad9190610c30565b60405180910390f35b3480156100c257600080fd5b506100dd60048036038101906100d891906109cc565b610270565b005b3480156100eb57600080fd5b50610106600480360381019061010191906109a3565b6103cb565b6040516101139190610d32565b60405180910390f35b34801561012857600080fd5b50610131610414565b60405161013e9190610d32565b60405180910390f35b34801561015357600080fd5b5061015c61041a565b6040516101699190610c30565b60405180910390f35b61018c60048036038101906101879190610a31565b6104a8565b005b34801561019a57600080fd5b506101b560048036038101906101b091906109cc565b6106d5565b005b3480156101c357600080fd5b506101cc61093e565b6040516101d99190610c15565b60405180910390f35b600080546101ef90610e92565b80601f016020809104026020016040519081016040528092919081815260200182805461021b90610e92565b80156102685780601f1061023d57610100808354040283529160200191610268565b820191906000526020600020905b81548152906001019060200180831161024b57829003601f168201915b505050505081565b600260009054906101000a900473ffffffffffffffffffffffffffffffffffffffff1673ffffffffffffffffffffffffffffffffffffffff163373ffffffffffffffffffffffffffffffffffffffff1614610300576040517f08c379a00000000000000000000000000000000000000000000000000000000081526004016102f790610cb2565b60405180910390fd5b80600460008473ffffffffffffffffffffffffffffffffffffffff1673ffffffffffffffffffffffffffffffffffffffff1681526020019081526020016000205461034b9190610d69565b600460008473ffffffffffffffffffffffffffffffffffffffff1673ffffffffffffffffffffffffffffffffffffffff168152602001908152602001600020819055507fe73456b115247609555f3978e5c4f4e0ea9ad60b79de66ad86c6ced9c960a43633826040516103bf929190610bec565b60405180910390a15050565b6000600460008373ffffffffffffffffffffffffffffffffffffffff1673ffffffffffffffffffffffffffffffffffffffff168152602001908152602001600020549050919050565b60035481565b6001805461042790610e92565b80601f016020809104026020016040519081016040528092919081815260200182805461045390610e92565b80156104a05780601f10610475576101008083540402835291602001916104a0565b820191906000526020600020905b81548152906001019060200180831161048357829003601f168201915b505050505081565b60035434116104ec576040517f08c379a00000000000000000000000000000000000000000000000000000000081526004016104e390610c52565b60405180910390fd5b600260009054906101000a900473ffffffffffffffffffffffffffffffffffffffff1673ffffffffffffffffffffffffffffffffffffffff166323b872dd3330846040518463ffffffff1660e01b815260040161054b93929190610bb5565b602060405180830381600087803b15801561056557600080fd5b505af192505050801561059657506040513d601f19601f820116820180604052508101906105939190610a08565b60015b6105d5576040517f08c379a00000000000000000000000000000000000000000000000000000000081526004016105cc90610c72565b60405180910390fd5b7f1c2e564b085b873cdb82e7abcea616a60e8dc2cb86942bae5b5faa422ce591cf60405161060290610cf2565b60405180910390a181600460003373ffffffffffffffffffffffffffffffffffffffff1673ffffffffffffffffffffffffffffffffffffffff168152602001908152602001600020546106559190610d69565b600460003373ffffffffffffffffffffffffffffffffffffffff1673ffffffffffffffffffffffffffffffffffffffff16815260200190815260200160002081905550507fe73456b115247609555f3978e5c4f4e0ea9ad60b79de66ad86c6ced9c960a43633826040516106ca929190610bec565b60405180910390a150565b80600460003373ffffffffffffffffffffffffffffffffffffffff1673ffffffffffffffffffffffffffffffffffffffff1681526020019081526020016000205411610756576040517f08c379a000000000000000000000000000000000000000000000000000000000815260040161074d90610cd2565b60405180910390fd5b80600460003373ffffffffffffffffffffffffffffffffffffffff1673ffffffffffffffffffffffffffffffffffffffff168152602001908152602001600020546107a19190610dbf565b600460003373ffffffffffffffffffffffffffffffffffffffff1673ffffffffffffffffffffffffffffffffffffffff16815260200190815260200160002081905550600260009054906101000a900473ffffffffffffffffffffffffffffffffffffffff1673ffffffffffffffffffffffffffffffffffffffff1663a9059cbb33836040518363ffffffff1660e01b8152600401610841929190610bec565b602060405180830381600087803b15801561085b57600080fd5b505af192505050801561088c57506040513d601f19601f820116820180604052508101906108899190610a08565b60015b6108cb576040517f08c379a00000000000000000000000000000000000000000000000000000000081526004016108c290610d12565b60405180910390fd5b7f1c2e564b085b873cdb82e7abcea616a60e8dc2cb86942bae5b5faa422ce591cf6040516108f890610c92565b60405180910390a1507f9fe2db218b58c00ab3556f2be44b2769b37978368c63313d82d78306568e47768282604051610932929190610bec565b60405180910390a15050565b600260009054906101000a900473ffffffffffffffffffffffffffffffffffffffff1681565b6000813590506109738161109e565b92915050565b600081519050610988816110b5565b92915050565b60008135905061099d816110cc565b92915050565b6000602082840312156109b557600080fd5b60006109c384828501610964565b91505092915050565b600080604083850312156109df57600080fd5b60006109ed85828601610964565b92505060206109fe8582860161098e565b9150509250929050565b600060208284031215610a1a57600080fd5b6000610a2884828501610979565b91505092915050565b600060208284031215610a4357600080fd5b6000610a518482850161098e565b91505092915050565b610a6381610df3565b82525050565b610a7281610e3b565b82525050565b6000610a8382610d4d565b610a8d8185610d58565b9350610a9d818560208601610e5f565b610aa681610f22565b840191505092915050565b6000610abe602f83610d58565b9150610ac982610f33565b604082019050919050565b6000610ae1600f83610d58565b9150610aec82610f82565b602082019050919050565b6000610b04600f83610d58565b9150610b0f82610fab565b602082019050919050565b6000610b27601e83610d58565b9150610b3282610fd4565b602082019050919050565b6000610b4a602b83610d58565b9150610b5582610ffd565b604082019050919050565b6000610b6d601083610d58565b9150610b788261104c565b602082019050919050565b6000610b90600c83610d58565b9150610b9b82611075565b602082019050919050565b610baf81610e31565b82525050565b6000606082019050610bca6000830186610a5a565b610bd76020830185610a5a565b610be46040830184610ba6565b949350505050565b6000604082019050610c016000830185610a5a565b610c0e6020830184610ba6565b9392505050565b6000602082019050610c2a6000830184610a69565b92915050565b60006020820190508181036000830152610c4a8184610a78565b905092915050565b60006020820190508181036000830152610c6b81610ab1565b9050919050565b60006020820190508181036000830152610c8b81610ad4565b9050919050565b60006020820190508181036000830152610cab81610af7565b9050919050565b60006020820190508181036000830152610ccb81610b1a565b9050919050565b60006020820190508181036000830152610ceb81610b3d565b9050919050565b60006020820190508181036000830152610d0b81610b60565b9050919050565b60006020820190508181036000830152610d2b81610b83565b9050919050565b6000602082019050610d476000830184610ba6565b92915050565b600081519050919050565b600082825260208201905092915050565b6000610d7482610e31565b9150610d7f83610e31565b9250827fffffffffffffffffffffffffffffffffffffffffffffffffffffffffffffffff03821115610db457610db3610ec4565b5b828201905092915050565b6000610dca82610e31565b9150610dd583610e31565b925082821015610de857610de7610ec4565b5b828203905092915050565b6000610dfe82610e11565b9050919050565b60008115159050919050565b600073ffffffffffffffffffffffffffffffffffffffff82169050919050565b6000819050919050565b6000610e4682610e4d565b9050919050565b6000610e5882610e11565b9050919050565b60005b83811015610e7d578082015181840152602081019050610e62565b83811115610e8c576000848401525b50505050565b60006002820490506001821680610eaa57607f821691505b60208210811415610ebe57610ebd610ef3565b5b50919050565b7f4e487b7100000000000000000000000000000000000000000000000000000000600052601160045260246000fd5b7f4e487b7100000000000000000000000000000000000000000000000000000000600052602260045260246000fd5b6000601f19601f8301169050919050565b7f20546865206465706f73697420616d6f756e74206d757374206e6f742062652060008201527f6c657373207468616e20302e3031210000000000000000000000000000000000602082015250565b7f7472616e666572206661696c6564210000000000000000000000000000000000600082015250565b7f7472616e66657220737563636573730000000000000000000000000000000000600082015250565b7f4f6e6c792062617365546f6b656e2063616e206265206d6f6469666965640000600082015250565b7f5468652062616c616e636520616d6f756e74206c657373207468616e2064657060008201527f6f736974206d6f6e657921000000000000000000000000000000000000000000602082015250565b7f7472616e66657220737563636573732100000000000000000000000000000000600082015250565b7f7472616e666572206661696c0000000000000000000000000000000000000000600082015250565b6110a781610df3565b81146110b257600080fd5b50565b6110be81610e05565b81146110c957600080fd5b50565b6110d581610e31565b81146110e057600080fd5b5056fea26469706673582212201577ad53d1adb325450b04948e48ee8e1caa9d9ad6c9a30e72b32940ba4aa61c64736f6c63430008040033",
        "linkReferences": {}
    },
    "methodIdentifiers": {
        "LESS_MONEY()": "8eeeea6f",
        "deposit(uint256)": "b6b55f25",
        "getdepositBalance(address)": "7e033afd",
        "name()": "06fdde03",
        "symbol()": "95d89b41",
        "token()": "fc0c546a",
        "tokensReceived(address,uint256)": "24a756d1",
        "withdraw(address,uint256)": "f3fef3a3"
    },
    "id": 20
}